:020000040800F2
:1000000000A00020CDFB000835FC000835FC0008EE
:1000100035FC000835FC000835FC00080000000035
:1000200000000000000000000000000035FC000897
:1000300035FC00080000000035FC0008714B00088A
:1000400035FC000835FC000835FC000835FC0008CC
:1000500035FC000835FC000835FC000835FC0008BC
:1000600035FC0008814B000835FC000835FC000811
:1000700035FC000835FC00082995000835FC00080F
:1000800035FC000835FC000835FC000835FC00088C
:1000900035FC000835FC000835FC000835FC00087C
:1000A000D5AA000829AB0008C5AA000817940008C3
:1000B00019AB000809AB0008F9AA000835FC0008D4
:1000C00035FC000835FC000835FC000835FC00084C
:1000D00035FC0008219500081995000835FC00083A
:1000E000854B000835FC000835FC000835FC00088D
:1000F000F5AA000835FC0008E5AA000835FC000850
:1001000000000000000000000000000035FC0008B6
:1001100035FC000835FC000835FC000835FC0008FB
:1001200035FC000835FC000835FC000835FC0008EB
:1001300035FC000835FC000800000000000000004D
:1001400035FC000835FC000835FC00080000000004
:10015000000000000000000000000000000000009F
:10016000000000000000000035FC000835FC00081D
:1001700035FC000800000000000000000000000046
:080180000000000035FC00083E
:1001C0002DE9F04FB1B00AF005F818B90AF068F956
:1001D0000BF07CFABF4DC04C0AF022F82B7843F0AC
:1001E00001032B70BD4B4FF47002C3F8882000232D
:1001F000089309930A93236843F4803323602368A8
:1002000003F400330993089B01330893099B1BB93E
:10021000089BB3F5A04FF2D1236813F4003318BF45
:1002200001230993099B012B40F0798202230A9351
:10023000AB4B12221A606368636063686360636833
:1002400043F480636360636823F47C1363606368D2
:1002500043F4E8136360236843F0807323602368EA
:100260009901FCD5636823F003036360636843F07E
:1002700002036360636803F00C03082BFAD10A9B46
:10028000964F6B60974BFB60636A636ADFF89C82F2
:10029000DFF89CB2DFF89CA243F08073636263696D
:1002A00043F4FC0330AE636103238DF8723041F6F2
:1002B000FF7326F8503D4FF09040314608F046F865
:1002C0004FF6FF7331468848ADF8703008F03EF8BD
:1002D0003146404608F03AF83146844808F036F88E
:1002E0003146834808F032F83146824808F02EF84B
:1002F000304608F07DFD1C9B7F4AB3FBF2F37F4A3A
:10030000DFF834E213607E4B7E4A4FF0000CC3F8F6
:1003100000C0C3F804C07C4B5A60F02287F8232049
:100320000722C3F808C01A60DBF80830CAF80030AA
:10033000BEE80F0037460FC7BEE80F000FC79EE8A4
:100340000F0087E80F00636943F40023636163696A
:1003500043F400236361636943F4002363616369C9
:1003600043F4003363614FF0904310221A8520223A
:100370001A8540221A854FF40043C8F818304FF40C
:100380008043C8F818304FF40053C8F81830674657
:10039000CDF80CA0391DF0593144083707F0D6FFCD
:1003A000302FF7D1039B594AD3F80090584BDFF810
:1003B0008C811A60574B04221A7000213A4640463D
:1003C00011F098F90127002188F8001088F818101A
:1003D00088F8241088F80C70142217A811F08AF9F4
:1003E00019F4802F08BF4C4BDFF8FC8008BF1F704A
:1003F0002B784A4FDFF8489143F004032B7008F044
:10040000E5F8474B1F60636943F480236361E36948
:1004100043F40013E361236B23F010032363236B86
:1004200043F010032363D8F8243023F00F03C8F8F7
:100430002430D8F8243043F00403C8F82430D8F826
:10044000243023F0F003C8F82430D8F8243043F0E7
:100450004003C8F8243002234FF0000A4FF48072A2
:100460008DF87430049331464FF0030340468DF805
:1004700075301C928DF876A08DF877A00AF0C4FF35
:100480004FF40072314640461C920AF0BDFF3A68B4
:10049000039B22F001023A603968224A0A403A601E
:1004A000214A3A613A6842F001023A60C7F808A06E
:1004B000C7F80CA0C7F808A0BA6842F40042BA60B6
:1004C0003A683A607A6822F0784222F400427A6010
:1004D0003A6837E0D00400200010024000ED00E050
:1004E000002002400005FA0500040048000C004806
:1004F000001000480014004840420F00FC1000208B
:10050000A01000203F19010010E000E02A0C00209C
:10051000E4130020540A0020BC08002000540040CE
:10052000DC1C0020FFE0CF007A25E0000008004836
:10053000940A0020F00F002048190108580A0020F2
:100540000813002042F001023A601F681022514651
:10055000484611F0CFF8049B8DF851304FF6FF72EA
:100560004FF0030307F0020713928DF852A08DF8A5
:1005700053A08DF8503087B130A9012741F8747D20
:1005800040460AF041FF0C2389F80030072389F820
:1005900001A089F8033089F802704FF4D87008F090
:1005A00017FC63695F4843F0805343F002036361C3
:1005B00008F00EFC636943F0005343F002036361EB
:1005C000594C20460AF037FE30460AF009FE4FF437
:1005D0008072564B22924FF480621C932392544BAC
:1005E0001D93202200232046249231464FF40052CE
:1005F0001E932093219325922693ADF87C700AF0E8
:10060000FCFD236843F0010323604A4CA36823F0F8
:100610004053A360A36843F08053A3600A2004F012
:100620003EFAA36823F08043A360A368A360A36895
:1006300043F00043A360A368002BFCDBA3683E4AA1
:10064000DFF8F08023F04053A360A36843F0005329
:10065000A3609168394B0B4043F468339360E268C0
:10066000374B134043F40053E360236B013F23F007
:100670000F031F4327630122002409EB0403997829
:1006800041B1571CFFB2DB7819F8041040460AF05C
:100690005FFE3A460434102CEFD1264B9A6842F0A4
:1006A00001029A601A68D207FCD5DA6822F00202C9
:1006B000DA60DA6842F00202DA60DA6842F00102D7
:1006C000DA609A6842F004029A60BBF9E830002BC5
:1006D0003ED007EE903ADFED1B6ABBF9EA301A4ACA
:1006E000F8EEE77A07EE103A67EEA67ABBF9EC303F
:1006F000CDED1C7A07EE903AB8EEC77AF8EEE77ABD
:10070000002127EE267A67EEA67A117030460F494F
:100710008DED1D7ACDED1E7A0AF036FF20E0012323
:100720000A93ACE500360010580402404004005023
:10073000181300200004005000070050E010FCFFD8
:1007400007C0FFFD35FA8E3C96000020E817002018
:10075000BBF9EA20002ABCD1BBF9EC20002AB8D1B1
:10076000DFF85083BBF8F030DFF84CA3059300248A
:100770009BF8EF30C8F8004010222146C8F804402A
:10078000C8F80840BB4804932C729BF8F77010F02F
:10079000B1FFB94BA5F809402320CAF80040CAF8B8
:1007A0000440CAF808401C6004F079F90BAA012142
:1007B000752009F0DDF9D146F0B1B04BCAF804302C
:1007C000AF4BCAF808300FAA4323012120468AF80C
:1007D000003009F0CDF99DF83C3003F07E038DF830
:1007E0003C30002800F0EE80682B40F0EB800123C5
:1007F0006B721D238AF800306A7AA24B069300219F
:10080000042A197040F0F5879A4B9F4A9F4C1A6052
:100810009F4A5A609F4ADA602268079142F00100BD
:1008200020609A464FF0010940F2022040F2FD1E7E
:10083000049B0A2B28BF002309FA03F111EA000CDC
:1008400040F0DD8711EA0E0F00F0D987924B83F854
:1008500000C0924BC8F8003042F00302904BC8F839
:100860000430226023689B0702D5D8F800309847EF
:10087000DAF800300598DFF8448298474FF0000915
:10088000CA4688F800A01FB1BB1E022B00F2DB8015
:100890003346012200210C208DF8709009F0EEF80B
:1008A000002800F0D0809DF87030482B40F0CB80BD
:1008B0007C4B7D4A1A607D4A5A60062388F80030D6
:1008C000236843F0080323609BF8E4300BB1069AD9
:1008D00013709BF8E5300BB16F4A13709BF8E6304C
:1008E0000BB188F800309BF8F830042B00F2B2808E
:1008F000012404FA03F212F016085ED112F0090F77
:1009000000F0A6800A2004F0CAF813AB2246A0210A
:10091000772009F0B3F800284FD022461E21772017
:1009200009F0A8F94FF42F60614F04F0ADF8C1460B
:100930003C46A8F1600133460222C9B277208DF807
:1009400070908DF8719009F099F89DF870209DF8DD
:10095000713043EA022328F8073008F10208B8F1A1
:10096000100FE6D1FA89002302F00F0602F47F424D
:10097000FA8119460127481034F81000002818BFE2
:10098000002711F0010F1ABFC0B2434083EA1023C1
:10099000082013F4004F18BF83F4C05301384FEA06
:1009A0004303F6D101311029E5D13243E28127B961
:1009B000C3F303339E4200F02D872B7A43F02003CC
:1009C0002B724CE09DF82C3003F07E03682B8DF8E1
:1009D0002C3033D1022306216B723246D9F8043011
:1009E000084698479DF875309DF873209B0052008B
:1009F00002F0020203F0040313439DF8712002F099
:100A000001021343DAB25BB1012A02D10023AB72B7
:100A1000F2E6022A01D10123F9E7022004F049F8A5
:100A2000D9F8043013AA01210C2098479DF84C30C6
:100A300013F00F03F1D0042BEDD1E7E7702B04BFC7
:100A400004236B72D8E6012F7FF63EAF002718E72C
:100A5000012BB2D00D4A136843F0040313606B6896
:100A6000012B02BF2B7A43F040032B722C7A3CB34C
:100A70002046D3E744140020D41C0020719B0008BA
:100A8000899C000830060020C1990008F009002068
:100A9000F598000890C1793D90060020699A0008F9
:100AA000399900086C1000203D8100087980000809
:100AB000E01C002084060020C41C002074100020CC
:100AC0002B7843F002032B70A64D4FF480432B8507
:100AD0004FF40043AB611026013E15D0AB8A9BB2A8
:100AE00083F48043AB82AB8A9BB283F40043AB8236
:100AF000AB8A9BB283F40053AB82192003F0CFFF83
:100B0000192003F0CCFFE7E74FF40043AB614FF44B
:100B10008043AB61944E4FF40053AB6132681007D1
:100B200005D5924B1B689847914B01221A70914B47
:100B3000DFED916A1B68914D1A7B914B1A80914BA6
:100B40001B8807EE103AB8EEC77A8F4BC6EE877A4D
:100B50001B22FF2128469FED8D7A67EE877AC3ED31
:100B6000007A10F0C7FD00222A703268884B0121FC
:100B700012F0020F1970284604D069700321197011
:100B80000221A970510704D519784D1C1D70032549
:100B9000455412F00A0F40F04E86039A1568AA06D3
:100BA00004D51A78511C1970072181549BF805202F
:100BB000082A01D00E2A04D11A78511C19700B2171
:100BC00081541A786F0702F101014FF00C06865428
:100BD000C9B248BF0232197042BF1A701022425483
:100BE0001A781226511CC9B286546E05197004D5A4
:100BF0009BF8B861002E40F02D86A90504D51A781F
:100C0000511C197015218154EA0504D51A78511C1C
:100C100019701A238354982200215E485D4DDFF835
:100C2000A0A110F067FD012003F040FE4C2758B34F
:100C3000012C29DC07FB04F905EB090898F84A6048
:100C400016B10134E4B2F2E7037990F9000001969D
:100C50000AEB8303032200921B6B3246012103F04F
:100C6000C7FD834660B104FB07504C22314610F0AB
:100C700041FD01231C4445F809B088F84A30E4B22C
:100C8000012003F0F1FDD2E7434B2A681A60434B81
:100C9000434E444A1E60002313809370424ADFF89B
:100CA00024C113605360414ADFF81CE11468404AD4
:100CB0001660404AF0891370A6F59B76B6F8462177
:100CC000643204F17D0107B212B2A3F10805EDB25E
:100CD000022D394D94BF25F8132025F81370DCF848
:100CE000005005F516754EF823500133122BECD148
:100CF000324B03931D68304B15F4805F08BFB6F983
:100D00004A71DF80CD348C421DD00B788BB98A7844
:100D1000CB789A420DDA72B1013A02EB820202EB11
:100D2000820202F561734A78234F04329BB227F89E
:100D300012300431E7E7013303EB830303EB830352
:100D400003F56173EFE72B074DD596F83E21062A90
:100D500043D8DFE812F03B008E009100BB00D500C5
:100D6000EF00EF0000080048F00900206C100020A0
:100D7000901000209C1D00200AE81C41F50900206D
:100D8000E806002098000020981700200000C842C4
:100D9000F40900201C070020A8100020880900206A
:100DA000CA0B0020481D00206C1D0020041D0020DF
:100DB0000C1D00200B090020F40F0020F00F002074
:100DC00048190108E81D0020A409002045F2F0524E
:100DD000754B1A8002F0F4FC28B908200AF066FC72
:100DE000724B734A1A60039B1A68724B12F4804F5D
:100DF00004D0122119706D496F48086042F2010059
:100E0000024202F4005140F02B851A786B4C6C4D75
:100E1000DFF8FCA1DFF8F491043A5A7003F018FEF1
:100E2000684B18607379052B02BF674B4FF4C8728B
:100E30001A8005F025FE654B4FF47A721A80002364
:100E400023602B602368002B40F0E880232703F009
:100E5000FFFD09F0BBFD0A2003F021FE013FF6D1A2
:100E600009F088FDDAF800302360D9F800302B60F3
:100E7000E8E742F6F822ABE74B4B42F6F8221A803D
:100E8000534A0A23000190FBF3F00023A0F5B06061
:100E900042F823000133122BFAD1444A4D49116024
:100EA000444A4020137003F001FD002895D001232F
:100EB000072790F90000484A8DE88800474B4021F9
:100EC00003F096FC003018BF012085E7364B42F650
:100ED000F8221A80354B424A1A60364B10221A709B
:100EE000402003F0E3FC00283FF477AF0123002506
:100EF00090F900003B4A8DE828004FF4E133DEE72B
:100F0000294B42F6F8221A80284B374A1A60294B9F
:100F100008221A70402003F0C9FC00283FF45DAF9E
:100F20000123002490F90000304A8DE818004FF4A6
:100F3000E133C4E71C4B2E4D2E4C2F48DFF8D4C0B4
:100F4000DFF8D4E02D4F42F6F8211980194B0C211F
:100F50001970062A4FF000032B70237003701AD00B
:100F60001B238CF8003005238EF800103B704FF4E3
:100F7000E1340E4B224A1A60402003F097FC00280F
:100F80003FF42BAF0023012190F900001D4A8DE8AA
:100F90000A00234693E721238CF800308EF80010D6
:100FA0003A70194CE5E700BFB60700200C0000209E
:100FB00061550008900A0020395500087C14002073
:100FC00078140020EC060020E0130020980900208F
:100FD0000C1200200555000861570008A08601008A
:100FE000F1540008BD560008D95400087556000891
:100FF0009A1100207D1200207C1200207F12002018
:10100000055400086555000890D00300C81D002055
:10101000CC1D00207E120020991100200023DFF853
:10102000A093CF4F23602B604FF00F084FF0050ABD
:1010300003F00EFD09F0CAFC0A2003F030FDBAF1FE
:10104000010AF5D109F096FC2368D9F80020296837
:101050001A443B6822600B44B8F101082B60E5D1CB
:101060000F2192FBF1F22260BE4A93FBF1F32B6059
:10107000137843F008031370BB4A137823F002037C
:101080001370039B1B6840F602021A420BD0B74B49
:10109000B74A1A60B74B03221A70B74BA3F8008007
:1010A000B64BA3F80080039AB368B54C1360B54AF9
:1010B000B54DDFF810A30123137022788DF872303C
:1010C000214662F07F024FF0020901F80C2B8DF8E7
:1010D00073906A69059342F480224FF480570DF1B2
:1010E000700B0491ADF8707059466A61504607F074
:1010F0002DF9CAF81870282003F0D1FCCAF818702E
:10110000484603F0CCFCAAF82870484603F0C7FC18
:10111000CAF81870484603F0C2FC002002F008FB31
:101120005A213A2002F0E6FA052003F0B8FC4846BE
:1011300002F0FEFA032002F0FBFA042002F0F8FAB3
:10114000052002F0F5FA062002F0F2FA059B184697
:1011500003F0A5FC08F09CFD642003F0A0FC8B4B81
:10116000DFF864E24FF080421A60894B894A1A60C6
:10117000894B8A4A1A608A4A4FF4966353819EE8E3
:101180000F000DF12C0C8CE80F000EF110030FCBAB
:101190000DF13C0A8AE80F000EF120030FCB0DF190
:1011A0004C090EF1300E89E80F009EE80F008BE825
:1011B0000F0099E80F00049F87E80F009BE80F00DD
:1011C00004F11C0E8EE80F009AE80F0004F12C0EBB
:1011D0008EE80F009CE80F0004F13C0E8EE80F0033
:1011E0004FF4967003F05BFC00214FF48C726D4855
:1011F00010F080FAEB69DDF810A043F00703EB6113
:10120000AB6943F4A523AB616B6943F4C0236B6105
:1012100004F1100104F1600E0F2710318E4540F0EB
:10122000378173790E2B40F04C8101238DF86630A5
:101230005D4B1968B8F1040F00F04C8108F101030F
:1012400001EBC30212F9062C022A40F041814FEA59
:10125000C8039A1C8A1800F03F810B449B88003316
:1012600018BF01238DF86130039B1A68C2F3400355
:101270008DF86230C2F380138DF86430C2F34033CE
:101280008DF85C30C2F3C0338DF85F3012F4006328
:1012900007D096F83231A3F1020EDEF1000343EBE2
:1012A0000E038DF86030C2F300438DF86530C2F351
:1012B000C003B6F8D4708DF85E30C2F38043ADF849
:1012C0006A708DF86330D704B6F8E030ADF8683056
:1012D00002F0010002F0080144BFB6F8DC20ADF8CE
:1012E0006A20B3F5FA7FC4BF0023ADF86A3096F8E0
:1012F000823184F84C300023A4F84D309DF86630DC
:101300008DF85D00002B14BF0222002200B901B14C
:101310000132264B234E03EB8203D3F890309F1EFD
:101320000633049337F8023F4FF6FF72934240F0C2
:10133000D5801F4BDFF894E01E4F04221A70002462
:10134000E3190FCB04EB0E061034402C86E80F0097
:10135000F6D1039B18481A68184B1E6838E000BF86
:10136000C81D002075100020C013002004130020A9
:10137000BC0B00200007002002070020040700200B
:10138000D0040020BC08002000100240A417002058
:10139000A0170020ABAAAA3F9C17002026B4973EB6
:1013A000F40F0020F81D0020E41300204819010864
:1013B00002110020E8190108C6130020801D00203A
:1013C000CC1D00200004004898190108FC070020EB
:1013D000C74B02F480521C680023002A00F00682EA
:1013E000B4F9041020F8131001330C2BF5D10224AA
:1013F00001268DF872608DF873406B69BD4F4FF018
:10140000100843F48023ADF8708059466B6138466C
:1014100006F09CFFA7F828808DF872608DF8734065
:101420006B694FF090484FF0800943F40033ADF8FA
:10143000709059466B614FF0904006F087FFC8F8F6
:1014400018908DF872608DF873406B69ADF870403C
:1014500043F480236B615946384606F077FF3C859C
:101460008DF872608DF873406B694FF4004743F458
:101470000033ADF8707059466B61404606F066FF68
:10148000C8F818701E2003F00AFB31B0BDE8F08FD9
:1014900011F8063C11F8050C4FEAD30C03F00702D3
:1014A00051F8103C03EB8C039200D3F820C090401D
:1014B00007FA02F22CEA02021A621A6A1043186250
:1014C000ABE603F0EF03082B3FF4AFAE0023ADE62D
:1014D0009846AFE60023C5E61346C3E69DF86220B2
:1014E0005FFA83F81B0A4AB104EB081281481169BC
:1014F000814203D1928A012A00F06D81022B00F013
:101500006A81012B0AEB081040F03B819DF85D30A9
:10151000002B00F060814FEA0818774BE06504EB80
:1015200008090022FF211A705A609A60DA601A6472
:1015300083F8441083F8451083F8462083F8472049
:1015400099F8193084F850208DF87230B9F81420C9
:10155000D9F81000ADF87020022359468DF8733089
:1015600006F0F4FE94F84C2099F81630D9F80C00E7
:10157000012A0CBF03220022002B40F09C80036A4A
:1015800023F0010303628369016A23F0F30343F04C
:10159000010321F00A0143EA021341F001018361D2
:1015A0000162836923F00C0383618369836104EB27
:1015B00008090021012207F035FFD9F80C20138813
:1015C0009BB243F00103138099F817308DF8703007
:1015D0000022012358468DF871308DF87220069252
:1015E0008DF87330059301F0CFFF99F81710059B24
:1015F000069A1B290BD1192158468DF870108DF8C9
:1016000071308DF872208DF8733001F0BDFFA04469
:101610003A4B2366D8F80C90394B63660023A366D7
:10162000484607F04DFF062800F3D58098F81620AD
:1016300034490A23434303EB920346F8231004334F
:10164000043146F8231091080222D9F80C308A4060
:1016500092B21A4303B203EB8303DB00C9F80C20F8
:1016600003F120023244EFF3128E502181F31288ED
:10167000103333440421D3F800C0BCF1000F03D071
:10168000C2F800C01A680432013903F10403F2D130
:1016900011605FFA8EFE8EF31188282303FB006031
:1016A000036A002B40F0F080D9F80C3023F00103DE
:1016B0001B041B0CECE0042B26D1036A23F010035F
:1016C0001B041B0C03628369016A21F0A00123F44F
:1016D0007343090443F48073090C43EA023341F075
:1016E000100183610162836923F440635CE700BFFA
:1016F0007C1D002000040048B0150020597F000820
:101700003180000830050020082B036A1ED123F425
:1017100080731B041B0C0362C369016A9BB223F034
:10172000F30343F001034FF2FF5E43EA021301EAC1
:101730000E0EC3614EF480730362C36923F00C0381
:101740001B041B0CC361C369C36130E723F48053DE
:101750001B041B0C0362C369016A23F440731B055D
:1017600021F400511B0D490443F48073490C43EAF2
:10177000023341F48051C3610162C36923F44063C1
:10178000DEE7032B27D19DF8633094F84E90DFF805
:1017900044814BB100234FF6FF72082106F000FE92
:1017A0003D4B48F8290010E0BDF86820BDF86A30CC
:1017B000B2F5FA7F14DD3949B1FBF2F2242192B27D
:1017C00006F0EEFD364B48F82900C36094F84E3021
:1017D000013384F84E30049BBB427FF4A3ADA8E5EF
:1017E0003049B1FBF2F2012192B2D7E7B6F9041009
:1017F000F8E52B7A43F002032B72FFF774B800214F
:10180000012B04913FF614A8274B9DF81C201A7059
:10181000FFF728B8254B42F210721A805A80244AEA
:101820005A60244A9A60244ADA60244A1A61244A97
:101830005A61FFF70FB91A7804218154511CC9B2BB
:1018400005254554D11C0232D2B2197006218154AB
:10185000FFF7A3B902321A7013224254FFF7CDB931
:10186000184844F62064048021B1082119701649F3
:1018700016480860D2077FF5C8AA0C221A70124ACF
:1018800013491160FFF7C1BAD9F80C3043F00103D6
:10189000C9F80C309FE700BF4180000800512502C5
:1018A0005580000840420F0090060020D01D002007
:1018B00057A100088BA100084DA1000889A10008CC
:1018C000AD9F0008B60700200C0000205555000809
:1018D0004955000814160020A9490A682DE9F04F5F
:1018E00002F59C43A74C20332360A74B8BB01D7897
:1018F0000591002D3AD1A54FDFF8A082DFF8CCA2E8
:1019000097F80090E9B249450E4680F2A480072975
:10191000D8BFD8F800303846D8BF595CDAF8003064
:101920009847032E1DDCD8F8003006F10F0B03EBAF
:101930008B0133F82B204B8898B1811A4FF47A70C1
:101940009B1A484390FBF3F040F2EE2300F57A70C7
:101950009842B8BF184640F6CA039842A8BF184636
:1019600080B204EB46060135B080C9E788490968B2
:101970008A4201D9013D1D70864B00931A6812F40A
:10198000805F05D0844B1B68DD0701D409F08CFF14
:10199000059B1968814B1A68937A002B00F03481FB
:1019A000013B7F48127B30F913301AB1C3F53B631A
:1019B00008331BB2A3F57A73B3F57A7FA8BF4FF44F
:1019C0007A7323EAE37307EE903ADFED766AF8EE76
:1019D000E77A87EEA67A744ADFED747A67EE277AA3
:1019E000FCEEE77A17EE903A1380009BDFF8E09167
:1019F0001B6813F4807F00F054816D4B6D4D99424C
:101A000003D9AB78002B00F04B87AB78002B00F0AC
:101A10004881614F95F821603B6899F800B00297C2
:101A2000012E03F08063DFF894A1634F01930BF064
:101A3000040B14BF4FF003084FF0000895F8201076
:101A4000052900F22881DFE811F01B0193019901BB
:101A5000BC01D401F1014F4B1A68584B029342F27A
:101A60000101186800900A40039206D094F82930CA
:101A700084F82830524B5A781A7094F828601EB1B6
:101A80004F4B1E7886F001060F2384F82A30434B13
:101A900094F82BA01B6801930323BAFBF3F303EB29
:101AA0004303AAEB0303DBB25B000493009B454FA7
:101AB000DFF8ECB003F51673002507F1C0020693BA
:101AC00007F172084D4542DA690086B137F9150011
:101AD000019B9B8A80B29842C0F2CA86019BDB8A36
:101AE000984200F3C586069B42F8253003E0304655
:101AF000EEE73BF80100039B1BB92BF815000135FD
:101B0000E0E7314B062101FB053E049B2EF8030064
:101B100094F8743033B9BAF1020FEEDD4FF00103DF
:101B200084F874304FF0000128F815106B00002085
:101B30003EF8101033F808C001306144032823F840
:101B40000810F5D10BB293FBF0F080B2D5E794F812
:101B50002A300F2B174B3DD10F4A1268560139D44A
:101B6000029AD96812689A60521AC82A02D90122C8
:101B700083F8212094F82B30013384F82B30FBE6D6
:101B800058100020E0080020B8130020900A002020
:101B9000B4130020F00F0020CC1700200C1D0020F3
:101BA000F40F002000007A444C0A002000C07F445B
:101BB000404B4C00481D0020441D0020E81D002023
:101BC0000A000020E40800200C0900200C0000207E
:101BD000C0130020B84AB94E012151701170029A09
:101BE00099681268DA60521A59688A4284BF0022E2
:101BF00083F8212000254D45BCDAE8B203F0F0FE61
:101C000026F815000135F6E70098006800047FF516
:101C1000ECAED4F89000081A0028FFF6E6AE01F505
:101C20009C402030C4F89000A548D27A4579A54858
:101C3000A54E30F8150080B290FBF2F094F8942095
:101C4000013202F00F0284F89420224482F89500B9
:101C500018461A46855D01302A44102812B2F9D17F
:101C600092FBF0F212B2002A03DB642A1346A8BFEB
:101C7000642307EE903ADFED956AF8EEE77AA8E67E
:101C8000BBF1000F68D0012E05D0052009F0E6FC5D
:101C90008F4B02221A70B8F1000F02D0404602F0BA
:101CA00095FE8C4DB5F8DE0001F030FEAA460646E2
:101CB00018B904F0CDFE04F0BBFE99F800305B07C4
:101CC00008D5009B1B68DF0604D5834B1B78DD0617
:101CD00040F1F28500239AF88C819AF88D11BAF8B8
:101CE0004671BAF848E175481A4630F912509B0817
:101CF000BD42C4BF63F07F03DBB201327545B8BF9C
:101D000043F04003042AF0D194F8B1209A4240F005
:101D1000C18094F8B220F92A02DC013284F8B220A2
:101D20006E4F84F8B1303B786D4D002B40F0E98068
:101D30002B68D80740F1DC80002E40F0AD8099F888
:101D40000030DA0740F1DD805B0702D4012384F81C
:101D5000B33009F05DFDD4E0019B4FF4806023B106
:101D600009F096FC00232B6195E709F081FCF9E767
:101D7000012E7FF463AE052100F09ABD012E04BF51
:101D8000052185F82010BBF1000F0CD0D4F8A81065
:101D9000B1F90E0049490880488088803868408839
:101DA000C8804FF00208DAF8000069698142C0F08B
:101DB0007B85BBF1000F00F07785012E3FF43EAE2E
:101DC00069E799F8001041F0020189F8001009F064
:101DD0006BFDDAF80000E9690144A961042185F886
:101DE00020104FF4806009F043FC052009F02AFC24
:101DF00024E6012E14D1DAF80000A9698142BFF46B
:101E00004AAF364B197821B9029B1968CA073FF5CA
:101E100042AF99F8001021F0020189F80010AAE7FA
:101E2000DAF80020EB691344AB6134E73868DAF87C
:101E30000030C188642000FB01312961002185F850
:101E40002010E970CDE79AF88E317EB9002B00F0B2
:101E50003B85244B1A68D4F8AC309B1A002B80F2D7
:101E6000338509F021FD84F8B06033E73BB11D4AAA
:101E700012684FF47A7101FB0323C4F8AC3094F874
:101E8000B030002B3FF426AF02F096FD002384F81B
:101E9000B0301FE7002241E7D4F8B4300A2B30DC21
:101EA000114B1B885E072CD4104B1B784BBB04F0E6
:101EB000CFFD04F0BDFD4CE70A000020F40F002028
:101EC0000813002018130020750900200000C842E4
:101ED000DF130020940A002075100020100000205D
:101EE000CC170020E81D0020101F0020DE1300206A
:101EF00099F80030580704D594F82830002B40F0AA
:101F0000E98494F8B2309B4E142B2ED13B78C3B1A8
:101F100094F8B1305F2B06D199F8003013F0040B20
:101F20006DD009F0C1FCB8F1000F0AD094F8B130BF
:101F30007D2B06D199F8003013F0040B65D009F021
:101F4000B3FC99F8003013F004020ED194F8B130CC
:101F5000572B60D14FF47A73A4F8B830864B1B68C6
:101F600013F0080301D1854A1380009B1B685807B2
:101F700026D594F8BC309BB199F8003059070FD59D
:101F80007F4BB3F90620BAF846319A4208DD2B6838
:101F900013F0010302BF3222A4F8BE2084F8BC3043
:101FA0002B68DA0340F1A28094F8C0302BB994F882
:101FB000BA3013B93223A4F8BE30012384F8C030FC
:101FC000366800232B6006F17F0706F1CF084FF03B
:101FD000010BB84500F09A803A787B789A420CDA87
:101FE000394617F8010C02F0C3FC30B117F8023C77
:101FF0002A680BFA03F313432B600437E9E70B203D
:1020000002F0E4FC84F8B2B08DE70B2002F0DEFCB5
:1020100084F8B2B095E700990968490740F16284F5
:102020005A2B40F05F8494F8BA302BB1012384F826
:10203000BA2084F8BB3098E794F8BC3083F00103F1
:1020400084F8BC301BB10C2002F0C0FC8DE70D20E1
:10205000FAE75B2B00F04B845E2B40F056840320A4
:1020600000F046BCB8F1000F02D07E2B00F05A847D
:1020700094F8B130972B04D1424B4FF4C8721A80B8
:1020800073E7A72B05D1404A137843F0040313707C
:102090006BE70022BB2B099217D10223ADF8263043
:1020A0003368BDF82410B3F85C200A44A3F85C2020
:1020B000BDF82610B3F85E200A44A3F85E2009F0AC
:1020C0009DFB002384F8B2304FE7B72B02D14FF6C7
:1020D000FE73E3E7BE2B03D10223ADF82430DFE724
:1020E000BD2B7FF442AF4FF6FE73F6E794F8BA309B
:1020F000002B3FF465AF99F8003013F0040302BFE2
:1021000084F8BA30012384F8BB3059E71F4F06F139
:10211000CD054FF00C0806F215164FF0010BB54235
:1021200038D06A78AB789A4221DA691C287802F0B4
:102130001FFCE0B16979EB78154A95F804C008FBFB
:1021400001FE013B07EB0E0003EB4303134442681F
:1021500093420CD043600023836094F8C13007F8A9
:102160000EC00BFA01F123EA010184F8C110063513
:10217000D5E700BF041D0020F00900203C0A002024
:10218000F40F0020E013002075100020101D002027
:10219000561A0108C84AC94994F82830D2F8008074
:1021A0000F68C74D019300260292042E00F0C082F2
:1021B0006968002962D00A78002A5FD0A868381AB6
:1021C00000280BDB07F5FA70A860012000FA06FE74
:1021D00094F8C10020EA0E0084F8C100019B002B96
:1021E0004CD028784B780430C0B2002B40F0698284
:1021F000B44B33F910E0BAF8440100F1C80CE645DD
:1022000028DD91F802B094F8C1103141CB0735D4E4
:10221000BBF1000FCCBF02200120039202F0FCFBB7
:10222000039A511E13293BD8DFE811F02B0042001E
:102230004F0061007A008200E5005601BA01EB010F
:102240001A023A0061006D008200E5005601DC00D0
:102250003C01B101C838864504DA91F802B0CBF1EF
:10226000000BD0E7012202FA06F194F8C12022EA1D
:10227000010284F8C12007F5FA72AA6001360C3514
:1022800093E798F800209344BBF1FA0FA8BF4FF0F2
:10229000FA0B2BEAEB7B88F800B0404602F04CFBCF
:1022A00094F8C1100122B2400A4384F8C120E5E746
:1022B00098F801209344BBF1640FA8BF4FF0640B62
:1022C0002BEAEB7B88F801B0E7E798F8032093440A
:1022D000BBF1640FA8BF4FF0640B2BEAEB7B7A4A8B
:1022E00088F803B01168404602F0E6FAD8E798F89B
:1022F000051059446429A8BF642121EAE1710D2A1F
:1023000088F80510CCD098F804209344BBF1640FF2
:10231000A8BF4FF0640B2BEAEB7B88F804B0BFE753
:1023200098F8062093448BF3080B88F806B0B7E7BB
:1023300066490968087802283DD107EE90BAF8EEA0
:10234000E76AB2EE047AC6EE877A91ED0A7A77EE02
:10235000877AF5EEC07AF1EE10FA29D49FED5C7A17
:10236000F4EE477AF1EE10FAC8BFF0EE477A0F2A82
:10237000C1ED0A7A94D007EE90BAF8EEE76AB2EEB1
:10238000047AC6EE877A91ED097A77EE877AF5EED0
:10239000C07AF1EE10FA2BD49FED4D7AF4EE477A25
:1023A000F1EE10FAC8BFF0EE477AC1ED097A77E78F
:1023B000DFED487ADBE788785844C828A8BFC820F2
:1023C00020EAE0700F2A88703FF46AAF4A7893449D
:1023D000BBF1C80FA8BF4FF0C80B2BEAEB7B81F80D
:1023E00001B05DE7394A11680A78022AC3D0EDE7E7
:1023F000DFED387AD9E735490968087802283AD1FB
:1024000007EE90BA9FED327AF8EEE76AC6EE877A69
:10241000D1ED0D6A77EEA67AF5EEC07AF1EE10FAFC
:1024200026D4F4EE477AF1EE10FAC8BFF0EE477A00
:10243000102AC1ED0D7A3FF433AF07EE90BA9FED4D
:10244000247AF8EEE76AC6EE877AD1ED0C6A77EE69
:10245000A67AF5EEC07AF1EE10FA29D4F4EE477AB6
:10246000F1EE10FAC8BFF0EE477AC1ED0C7A17E72B
:10247000DFED187ADCE7487B5844C828A8BFC8209D
:1024800020EAE070102A48733FF40AAF0A7B9344B5
:10249000BBF1C80FA8BF4FF0C80B2BEAEB7B81F84C
:1024A0000CB0FDE6094A11680A78022AC5D0EDE7AA
:1024B000DFED087AD9E700BFF01C0020E81D0020FE
:1024C000101D0020F40F0020E80F0020EC0F00206A
:1024D0000000C84200000000C049096808780228CE
:1024E0003ED107EE90BA9FEDBE7AF8EEE76AC6EEEF
:1024F000877A91ED107A77EE877AF5EEC07AF1EE71
:1025000010FA2AD49FEDB77AF4EE477AF1EE10FA7A
:10251000C8BFF0EE477A112AC1ED107A3FF4C0AE81
:1025200007EE90BA9FEDAE7AF8EEE76AC6EE877ACC
:1025300091ED0F7A77EE877AF5EEC07AF1EE10FA28
:102540002BD49FEDA87AF4EE477AF1EE10FAC8BFCB
:10255000F0EE477AC1ED0F7AA2E6DFEDA37ADAE773
:10256000087E5844C828A8BFC82020EAE070112A75
:1025700008763FF495AECA7D9344BBF1C80FA8BF5F
:102580004FF0C80B2BEAEB7B81F817B088E6934A33
:1025900011680A78022AC3D0EDE7DFED937AD9E714
:1025A0008E4A11680A78022A1FD107EE90BAF8EE17
:1025B000E76AB2EE047AC6EE877A91ED0B7A77EE8F
:1025C000877AF5EEC07AF1EE10FA0BD49FED857A9A
:1025D000F4EE477AF1EE10FAC8BFF0EE477AC1ED9B
:1025E0000B7A5DE6DFED807AF9E7CA789344BBF1B8
:1025F000C80FA8BF4FF0C80B2BEAEB7B81F803B0E4
:102600004EE6764A11680A78022A1DD107EE90BA82
:102610009FED747AF8EEE76AC6EE877AD1ED0E6A1E
:1026200077EEA67AF5EEC07AF1EE10FA09D4F4EE60
:10263000477AF1EE10FAC8BFF0EE477AC1ED0E7A94
:102640002EE6DFED697AF9E78A7B9344BBF1C80F88
:10265000A8BF4FF0C80B2BEAEB7B81F80EB01FE64A
:102660005E4A11680A78022A1FD107EE90BA9FEDE0
:102670005C7AF8EEE76AC6EE877A91ED117A77EE2A
:10268000877AF5EEC07AF1EE10FA0BD49FED557A09
:10269000F4EE477AF1EE10FAC8BFF0EE477AC1EDDA
:1026A000117AFDE5DFED507AF9E74A7E9344BBF1FC
:1026B000C80FA8BF4FF0C80B2BEAEB7B81F819B00D
:1026C000EEE5012B7FF4ECAD0C2A7FF4E9AD474B2E
:1026D000897833F910B0464B40F633008345A8BFE4
:1026E0008346BBF5617FB8BF4FF4617B4FF49660C2
:1026F00090FBF1F01978ABF5617B9BFBF0FB5FFA87
:102700008BFB59453FF4CCADBBF1030FD4BF594609
:102710000221197002FB01A2029B02F22A521A60E6
:1027200007F034FD0BF10100C0B202F075F9B7E516
:10273000304D314E2B6813F0020F06D1009B1B6801
:10274000DF0506D52D4BDB781BB13368980700F108
:10275000ED80012008F08CFF012704E004F078F9F7
:10276000012008F095FF2A68510732D58FB3012068
:1027700008F07EFF224B1B889A0704D404F068F906
:10278000022008F085FF99F800305B0708D41C4B45
:102790001B8803F044031BB11A4B1A881A4B1A808A
:1027A000336813F00A0F40F0C9802B681A054FF404
:1027B00080705AD508F06CFF9AF80530082B02D0CB
:1027C0000E2B40F0C38040200BB0BDE8F04F08F066
:1027D0004FBF022008F04CFFD5E700BFEC0F0020F0
:1027E00000007A440000C84200000000F40F0020FE
:1027F000081D0020CC170020F0090020481D0020F3
:10280000121F00203C0A0020C2130020514B1B88DD
:102810005F0706D4042008F03BFF4F4B1A884F4B4C
:102820001A802B689E061CD54A4B1B88580602D47A
:10283000402008F02DFF2B68590641BF464A1188F9
:10284000474A118013F0080308D094F8C230002BD7
:10285000ABD1414B1A88424B1A80012384F8C23015
:10286000A3E7402008F004FFE5E708F001FFA3E735
:1028700052F82530009883423FF63BA9E8B2079210
:1028800003F0AEF8032D079A3FF735A994F82A1004
:102890000123AB4021EA030384F82A30FFF72BB968
:1028A0000123AB70FFF7B1B842F21071E961032167
:1028B00085F82010FFF7C2B82A4B1B78002B7FF455
:1028C000C2AA002E7FF4DBAA102002F07FF80123B9
:1028D000FFF7DDBA11B9002E7FF413AB08F0E4FF67
:1028E000FFF70FBB5D2B7FF4B4AB012000E00220AB
:1028F000C7B27B1E8AF8283508F0E8FE07F090FC86
:10290000384602F089F8FFF730BB562B01D108F0AA
:1029100075FF3B78002B3FF4ABAB94F8B1306F2BD5
:102920007FF4A0AB08F074FFFFF71FBB094B1B88B7
:1029300013F001073FF412AF002714E72B68DB0602
:102940003FF564AF042008F093FE6AE70BB0BDE8E2
:10295000F08F00BF121F00203C0A0020C21300208D
:10296000500000201000002038B5044624200D46F9
:1029700001F01AFF4D2001F017FF002C094C14BF85
:1029800021203E2001F010FF2368002228469A7182
:1029900001F00AFF236893F84900BDE8384001F0D0
:1029A00003BF00BFBC13002001460020DCE710B5C8
:1029B00001F0F0FE044601F0EDFE04EB004010BD16
:1029C0002DE9F84F4B282DED048B00F0118500F216
:1029D000F080322800F050856BD8222800F0408427
:1029E0002BD8032800F0CE8207D8012800F0AD8252
:1029F000022800F0B7820020C0E2042800F0C9825B
:102A00000528F8D11A20FFF7CFFFC84D0024285D14
:102A1000013401F0C9FE0B2CF9D1C54D0024285D0D
:102A2000013401F0C1FE082CF9D10024002001344A
:102A300001F0BAFE072CF9D19FE2282800F0BF84EC
:102A400013D8242800F0B0842628D4D1B94C06200D
:102A5000FFF7AAFFB4F8E80001F0B8FEB4F8EA0006
:102A600001F0B4FEB4F8EC004CE22A2800F0BA847D
:102A70002C28C0D1AF4C0C20FFF796FF94F83E01F4
:102A800001F092FEB4F8480101F0A0FEB4F8440150
:102A900001F09CFEB4F8460101F098FE94F83F0165
:102AA00001F082FEB4F84A0101F090FEB4F84C0146
:102AB00028E23D2800F0178344D8382800F07A84B3
:102AC00033D8342800F0EF83362894D19A4D994CAE
:102AD00095F86400C0EBC000C0B2FFF765FF04F1D9
:102AE0002006683594F9980100230C33EA1812F98E
:102AF0000C2C824240F0D584C0B201F055FEB4F8EF
:102B00009A0101F063FE94F89C0101F04DFE94F8E7
:102B10009D0101F049FE94F89F0101F045FE94F8F3
:102B20009E0101F041FE00F0BFBC3A2800F0D282C5
:102B30003B287FF460AF0120FFF736FF7F4B1B6817
:102B400018780CE2452800F0C18426D8402800F00F
:102B50009A8442287FF44FAF764C1020FFF724FF71
:102B6000607901F021FEA06801F039FE94F83E0181
:102B700001F01AFEB4F8E80001F028FEB4F8EA000B
:102B800001F024FEB4F8EC0001F020FEB4F82E01B0
:102B900001F01CFEB4F83001B4E1462800F089844D
:102BA00049287FF428AF0220FFF7FEFE614B988989
:102BB000A8E1732800F0C38300F256816C2800F06E
:102BC000518200F2D180662800F0168200F29580D2
:102BD0004D2800F0318465287FF40DAF0B20FFF7FE
:102BE000E3FE574B544C188801F0F0FD554B1A6822
:102BF000554B9A420CBF554B554B188880B201F08B
:102C0000E5FD2068C0F3C003C0F380029B0043EAE7
:102C10004203C0F340021343C0F3401243EAC2032D
:102C200000F01000184301F0D1FD4A4B26791A88B4
:102C3000494B1968494B1B7802F00100C3F380032C
:102C400043EA4003C2F3400043EA800302F0080075
:102C50000343C2F3800043EA0013C2F3801043EA47
:102C6000401301F04000034301F08000034301F4EE
:102C700080700343C2F3001043EA4023C2F34010C4
:102C800043EA8023C2F3002043EAC02301F48050CA
:102C9000034301F40050034301F48040034301F473
:102CA0000040034301F48030034301F40030034348
:102CB00001F48020034301F40020034301F4801059
:102CC0000343C2F3402043EA405301F00071C2F3D2
:102CD00080220B43002043EA82630534024601252B
:102CE000B24280F06681115D05FA01F119421CBF04
:102CF00005FA02F108430132F2E7682800F0A681E4
:102D000069287FF478AE164D164E2878400000F002
:102D1000FE00FFF749FE00242B789C4280F02D81B5
:102D200036F8140001F052FD0134F5E78B1D01085F
:102D3000971D0108940A0020F0090020041D0020BE
:102D4000101F0020DC1C002000540040C01C00208C
:102D5000C21C0020121F0020CC170020C01300202E
:102D6000900A0020F40F00206F2800F0C78130D8AF
:102D70006D2800F086816E287FF43DAE0720FFF7B6
:102D800013FEC54BC54C1888FF28A8BFFF20C0B252
:102D900001F00AFDA06D4FF6FF75A842A8BF2846B6
:102DA00020EAE07080B201F011FDB4F85C0001F09F
:102DB0000DFDBB4B93F83331002B00F09081236E57
:102DC0000A205843A842A8BF284620EAE07080B2F3
:102DD00098E0702800F0BA8172287FF40CAEB04CF5
:102DE0001620FFF7E1FDB4F8440101F0EFFCB4F860
:102DF000D00001F0EBFCB4F8D20001F0E7FCB4F82D
:102E0000D40001F0E3FCB4F8860101F0DFFC0020FF
:102E100001F0CAFC002001F0C7FC002001F0C4FC56
:102E200094F8330101F0C0FC94F8400101F0BCFCBF
:102E3000002001F0B9FC9B4B1B68B3F95A000A2330
:102E400090FBF3F080B201F0C1FC94F8280101F08E
:102E5000ABFC94F82C0101F0A7FC94F82B0101F0D5
:102E6000A3FC94F82D017AE0A02800F08D8222D8EE
:102E7000772800F049820FD8742846D075287FF44F
:102E8000BAAD2F20FFF790FD874C14F8010F0028F2
:102E900073D001F089FCF8E77B2800F026837C28BA
:102EA0007FF4A9AD0320FFF77FFD804B187801F078
:102EB0008DFC7F4B44E6F02800F059820AD8DD28CB
:102EC00000F01083DE287FF496ADFFF770FDFFF76A
:102ED0006EFD52E0FE2800F03D82FF287FF48BADAE
:102EE000744A6E4C1188002323840122114266D15A
:102EF00001339BB25200092B92B2F7D10220FFF7A7
:102F000053FD208C01F062FC37E0644F00264FF047
:102F1000010ADFF8BC914FF0000B3B795B4540F3B1
:102F2000E981654B0C251BF80340002305FB03F2E8
:102F300002EB090012F80920A24200F0DC82013302
:102F40001C2BF3D10BF1010BE7E70320FFF72CFD5E
:102F5000002001F029FC022001F026FC002001F0F5
:102F600023FC0AE00520FFF71FFD544D0024285DD7
:102F7000013401F019FC052CF9D10120BDEC048BC2
:102F8000BDE8F88FFFF710FD022001F00DFC0020D6
:102F9000E2E70B20FFF708FD072001F017FC484D82
:102FA0000024285D013401F0FFFB072CF9D100203B
:102FB000A8E701F014FC3A4B93F82805CFE7013B52
:102FC000072B05D8DFE803F007090B0E10121416C3
:102FD0000123238492E70223FBE74023F9E74FF420
:102FE0008073F6E78023F4E72023F2E71023F0E76D
:102FF0000823EEE70423ECE71220FFF7D5FC314B62
:10300000264C1B88B3F5806FD4BF01260826002507
:1030100004F1220737F9150090FBF6F0013580B274
:1030200001F0D4FB032DF5D1208D01F0CFFB608D95
:1030300001F0CCFBA08D244C01F0C8FB208801F0EE
:10304000C5FB608801F0C2FBA0885BE71020FFF79A
:10305000ABFC1E4D0024285D013401F0A5FB102CB3
:10306000F9D18AE70D4C0620FFF79EFCB4F8460024
:1030700001F0ACFBB4F8480001F0A8FBB4F84C0038
:1030800040E7064C0620FFF78FFC206D01F0A7FB00
:10309000B4F8540036E700BFB0130020F009002058
:1030A000940A0020041D0020911A0108DF1300205B
:1030B00040000020101F0020F50900207D1D0108A0
:1030C000831D010898000020641000201E0A0020C3
:1030D000F81B01080420FFF767FC002061E1206E67
:1030E00000F30F0073E6CA4C0220FFF75DFC94F872
:1030F0008E0101F059FB94F88D0130E7C54C0B208F
:10310000FFF752FC2368187801F04EFB23685878CB
:1031100001F04AFB002523682B440135187901F0A2
:1031200043FB032DF7D12368D87901F03DFB2368D9
:10313000987801F039FB2368D87801F035FB2368D3
:10314000588901F043FB2368187A08E7B24C212024
:10315000FFF72AFC23681B78022B4FF000056CD187
:103160009FEDAE9ADFEDAE8AB2EE048A236803EBE0
:10317000850393ED090A20EE080A0CF0A5FD80F303
:103180000800C0B201F010FB236803EB850393ED48
:103190000C0A20EE090A0CF097FD80F30800C0B27B
:1031A00001F002FB236803EB850393ED0F0A20EE89
:1031B000280A0CF089FD80F30800C0B2013501F047
:1031C000F3FA032DD2D1072D236829D193ED120AEA
:1031D00020EE080A0CF078FD80F30800C0B201F080
:1031E000E3FA236893ED130A20EE080A0CF06CFD55
:1031F00080F30800C0B201F0D7FA236893F850308A
:1032000000EE103AB8EE400A0CF05EFDFF28A8BFB1
:10321000FF20C0B2013501F0C7FA0B2DD3D1ACE6C7
:103220002B44587801F0C0FA23682B44187B01F036
:10323000BBFA23682B44D87DECE723682B445878ED
:1032400001F0B2FA23682B44187B01F0ADFA236831
:103250002B440135D87D01F0A7FA0B2DEDD18CE67A
:103260005020FFF7A1FBDFF8B0816E4E00250C2740
:10327000D8F8004004EB8504013594F87D3007FB55
:103280000363187A01F090FA94F87E0001F08CFA4A
:1032900094F87F0001F088FA94F8800001F084FA35
:1032A000142DE5D169E64820FFF77EFB5A4F002533
:1032B00006263C6806FB0544013594F8D20001F06F
:1032C00073FA94F8CD0001F06FFA94F8CE0001F093
:1032D0006BFA94F8CF0001F067FA94F8D00001F08F
:1032E00063FA94F8D10001F05FFA0C2DE1D144E6C5
:1032F000464427E6BAF1000F3FF43FAEF0B2FFF7C5
:1033000053FB4FF0000A04E6474C464D2079FFF787
:103310004BFB0026671D4FF00C0823799E42BFF43B
:103320002CAEF05D002308FB03F25119525D82427E
:1033300000F0F48001331C2BF5D10136EDE70820B5
:10334000FFF732FB0124E0B2013401F02DFA092C21
:10335000F9D112E60820FFF727FB002001F036FA2A
:10336000002001F033FA002001F030FA1FE62A4C69
:103370000420FFF719FB2368B3F85E0001F026FA7A
:103380002368B3F85C00BDE50C20FFF70DFB274B6D
:10339000186801F024FA264B186801F020FA254B32
:1033A000186801F01CFAE8E50420FFF7FDFA184B55
:1033B0009868F6E70420FFF7F7FA154C45E5144C3A
:1033C0000720FFF7F1FAB4F82E0101F0FFF9B4F885
:1033D000300101F0FBF994F8320101F0E5F9B4F89D
:1033E00034018FE50120FFF7DFFA094B5879B6E584
:1033F000074C0420FFF7D8FA94F8840101F0D4F9BF
:1034000094F8850101F0D0F9B4F886017AE500BF9F
:10341000940A0020F01C0020041D00200000C84277
:1034200000007A44F81B0108F0090020ACF7FF1FE8
:10343000B0F7FF1FB4F7FF1F3A4D3B4C287800EB65
:103440004000C0B2FFF7B0FA00262B789E4204F18C
:103450000204BFF492AD14F8020C01F0A5F914F8BF
:10346000010C00EB800000EB800000F2EE2080B247
:1034700001F0ACF90136E8E70120FFF795FA2B4B94
:1034800093F840016BE50820FFF78EFA274D0024E2
:103490006319013493F8360101F086F9082CF7D14D
:1034A0006BE5302B7FF421AB0834A6427FF41AABD6
:1034B00063E50D20FFF778FA002001F075F9002090
:1034C00001F08DF9002001F08AF906E61320FFF7DC
:1034D0006BFA174D0024285D013401F065F90B2CBF
:1034E000F9D1EFE701F056F947E50220FFF75CFA62
:1034F000104B188806E54568284608F021FB8046F1
:10350000BAF1000F7FF4F4AE2C46631B98457FF7A9
:1035100019AD14F8010B01F047F9F6E7087A01F04C
:1035200043F90AE7900A0020E20B0020940A0020E9
:103530008B1D010842000020104A40F2E933118936
:1035400089070AD50E4A0D49107040F2E9330889FF
:10355000C0070DD51078C0B27047013B9BB2002B5D
:10356000EDD1084A138801339BB21380FF207047C6
:10357000013B9BB2002BEAD1F3E700BF00380040CB
:103580000C380040880A00200C4B10B5DB6802782C
:103590000B48DB43C3F302230121C3F1040301FA07
:1035A00003F384181B01DBB284F80033530902F0E3
:1035B0001F0201FA02F240F8232010BD00ED00E0E6
:1035C00000E100E0084B4FF47A72594301F5FA71BB
:1035D0004FF4FA63B1FBF3F3B1FBF2F102FB0030FD
:1035E000B0FBF1F0704700BF002F3A00F0B54FF08C
:1035F000FF33CF08136001F007014FEAC70E3D46C5
:103600000026052D00D806B1F0BD445DAF4203BFD2
:103610000C41E4B20B46334614F0010F06D073445C
:103620001360012601350EF1080EEAE70133082B7D
:103630004FEA5404F0D1F5E72DE9F04F87B00DF1D2
:103640001808109D48F80C5D294F1C4681468A4693
:10365000934600260123119A964221D10026129BFF
:103660001D60CEB92146484600F06EFF064698B967
:1036700004AD2B460622B02199F85C0106F0FEF954
:10368000002808BF6FF013060023E15CEA5C91425A
:103690002AD10133062BF8D1304607B0BDE8F08FB0
:1036A0004246294658460193FFF7A0FF039A531C50
:1036B00017D002F1B401890957F82110003118BF61
:1036C000012151450DD1D108019B02F007000529C8
:1036D0009FBF03FA00F5605C28436054551C013617
:1036E000B9E76FF03106BAE76FF03106D4E700BFF3
:1036F000C41A0108F8B50D4C20250746258532204F
:103700000E4601F0C1F947F08000FFF715FF3220A7
:1037100001F0BAF93046FFF70FFF322001F0B4F99B
:10372000A561C82001F0B0F90120F8BD00040048EF
:103730001F4B202210B51A850446322001F0A4F94F
:1037400004F07F00FFF7F8FE322001F09DF9194ADE
:103750004FF6FF7193894FF47A73148914F00204C1
:103760000CD0154A1348FF2111704FF6FF710489E0
:1037700014F0010416D01478E4B208E0013B9BB2C7
:103780008B42EAD10D4A138801339BB21380322059
:1037900001F07AF9064B20229A61C82001F074F9F1
:1037A000204610BD013B9BB28B42E0D1EAE700BF4F
:1037B00000040048003800400C380040880A00200F
:1037C00007B51B4B03F108025A6093F84A2122B354
:1037D000012A09D1032183F85C15072183F85E25AE
:1037E00083F85D150C221A72124B134A1A6040209E
:1037F00001F05CF870B10122002390F90000402133
:103800008DE80C004FF4E1330C4A00F0F1FF00307A
:1038100018BF012003B05DF804FB022183F85C159A
:10382000032183F85E2583F85D150722DBE700BFDF
:10383000880A00200C000020AD5400082D56000816
:103840000D4B03F1DC02C3F86025C3F8641500F1E9
:103850005003984207D002781AB98178C278914211
:1038600007DB0430F5E70023044A83F001031371FA
:1038700070470123F8E700BF880A00200C000020F1
:1038800070B5222200211248124E0DF033FF0022A3
:10389000114B052101241046042A03F108030CD022
:1038A000955D03F8085C03F8041C03F8034C03F867
:1038B000010C03F8021C0132EEE7084B0122A3F8C9
:1038C000A6210222A3F8AE21522283F8A22170BDC4
:1038D0002A0C0020D41A01082C0C0020880A002091
:1038E00010B507F021FD4FF43024012806D10CB9A2
:1038F000052010BD07F018FD013CF6E7002C08BFBD
:10390000052010BD00210120FFF72EB80B4AD2F888
:10391000683513F4805FB2F972350AD0B2F85021DD
:10392000111A8B4208DD10448342B4BF00200120ED
:103930007047B2F85201F7E701207047880A00206B
:10394000164B1946002241F80C2F4A608A6019462E
:103950001A6041F8182F5A609A604A608A601946C6
:10396000303393ED000A41F8242FB4EE400AF1EE13
:1039700010FA4A608A6006D693ED021AB4EE411A34
:10398000F1EE10FA07D79FED061AF0EE410AB0EEFD
:10399000410A04F005B9D3ED010AFAE71C10002032
:1039A000000000002DE9F041624CD4F8D035D4F885
:1039B000D4259A1A002AC0F2848003F5C332A032BB
:1039C000C4F8D83504F2DC50D4F8E835C4F8D4256E
:1039D000984704F2DC5194F8EC25084605F080FB8A
:1039E00094F8ED2512F0040F04F2DC501CD0D4F84A
:1039F000D435C4F8F035002384F8F43504F5867521
:103A00009E4604F2F65704F2FC5630F9131027F8DC
:103A1000131026F813100133032B25F802EFF4D10D
:103A200022F0040284F8ED25D4F8F025DAB1D4F8B8
:103A3000D43541499B1A414A934201F106064FF0A1
:103A4000000340D830F9132031F913705D0097421C
:103A5000775FC8BF21F81320974203F10103B8BF75
:103A60007253032BEED194F8083653B3B4F8DE0545
:103A7000B4F81021B4F8E035B4F80E11801AB4F897
:103A8000162112FB00F210B2B4F812219A1AB4F8FF
:103A9000183113FB02F3B4F8DC25511AB4F81421E1
:103AA00012FB01F21BB20A2112B293FBF1F392FB5B
:103AB000F1F2A4F8E035A4F8DC2590FBF1F2A4F8CB
:103AC000DE25BDE8F08101F10C07C4F8F035A1F264
:103AD000EA4C4FF00208384631F913E036F913206A
:103AE0000EEB0205A2EB0E0202EB820227F8132076
:103AF00095FBF8F50133032B2CF8025FECD1B4F9F8
:103B00000426B4F902360E4E1344B4F906260A21EF
:103B1000134459430022B518835E0232062A03EB90
:103B2000430391FBF3F3A5F80831F4D107F066FEE7
:103B300099E700BF880A00207E1000207FC3C901DA
:103B4000940A002013B5144601AB042290F85C01DE
:103B500005F094FF019B00281BBA0CBF6FF0130007
:103B60000020236002B010BD13B5144601AB022241
:103B700090F85C0105F082FF9DF804209DF8053067
:103B8000002843EA02230CBF6FF0130000202380BB
:103B900002B010BD08B5134690F85C01012205F093
:103BA0006DFF00280CBF6FF01300002008BDF7B5B3
:103BB00090F85C6115461C4601220DF10703304662
:103BC0000F4605F05BFF68B19DF807202A402243AD
:103BD000394630468DF8072006F04CF810B1002029
:103BE00003B0F0BD6FF01300FAE707B502AB8DF834
:103BF0000520120A03F8042D90F85C01022205F05A
:103C0000C2FF00280CBF6FF01300002003B05DF866
:103C100004FB08B590F85C0106F02CF800280CBFF6
:103C20006FF01300002008BD2DE9F3474FF0000AA4
:103C300088461646FF210122054699469DF82870C0
:103C40008DF807A0FFF7E5FF524604465146284687
:103C5000FFF7DFFF52460443FF212846FFF7D9FF55
:103C600064B2044364B2B9F1000F06D04246CB21DE
:103C70002846FFF78FFF044364B23FB10DF10702FE
:103C8000EE212846FFF786FF044364B20122FF219C
:103C90002846FFF7BEFF0122044300212846FFF714
:103CA000B8FF64B204430022FF212846FFF7B1FFAA
:103CB00064B29DF80730204323F0100340B2337004
:103CC00002B0BDE8F08773B50646002501220B213E
:103CD0003046FFF79EFF002204460B213046FFF7D7
:103CE00098FF0DF10702044313213046FFF752FFFE
:103CF0009DF8073064B2204301355B0740B2EDB256
:103D000005D0032D08D00028E0D002B070BD032DEF
:103D100008BF6FF00B00F8E76FF00B00F5E7F0B5A8
:103D20004FF4FA6385B000228DE80C0044F61F635F
:103D3000994206460F4604D86FF00305284605B0A1
:103D4000F0BD02A900F00EFC05460028F6D19DF852
:103D50000830A7F636342BB99DF8093013B99DF811
:103D60000A30FBB101AA0221304606F08CFFA8BB45
:103D70009DF808302BB1019B03F24E239C42DBD906
:103D8000E41A9DF80A3033B99DF8093053B1019B0C
:103D900003F5257303E0019B03F2B2235B00A3420A
:103DA000CAD2E41A9DF80B305BB16A460321304653
:103DB00006F069FF009B03F52573A342BCD268B9E6
:103DC000E41A9DF80C30002BB8D0A4F2262204216E
:103DD000304606F0D3FE77610546AFE70546ADE70E
:103DE00037B50446154605292CD8DFE801F003074E
:103DF00017191B1B436B2B60002021E00DF10602FD
:103E00004421FFF7B1FED8B9BDF8062053029AB19C
:103E10002B60A363012384F8293011E0C36BEAE728
:103E2000036CE8E70DF106026421FFF79DFE38B947
:103E3000BDF806305B02DEE7A36B2B6084F8290037
:103E400003B030BD6FF00300FAE72DE9F04F9FB0EB
:103E500090F830310C91C022012104460593FFF700
:103E6000D8FE0546002840F0E98220740122802116
:103E70002046FFF7CEFE0122FF212046FFF7C9FEB4
:103E80002A4629462046FFF7C4FE94F83A2191219C
:103E90002046FFF7BEFE294601222046FFF7B9FE65
:103EA0002A46FF212046FFF7B4FE2A4680212046FD
:103EB000FFF7AFFE294601222046FFF7AAFE0123A5
:103EC0008DF85C300546002840F0B882074644F67D
:103ED00020689DF85C30DB0707F101070ED5002D47
:103EE00040F00E83474502D16FF00605A6E2294651
:103EF00017AA2046FFF74EFE0546EAE74745F3D0EE
:103F0000002D40F09B82204606F097FF05460028D2
:103F100040F09482032384F832310C2214AB142134
:103F200094F85C0105F0AAFD002800F0C1829DF81C
:103F30005A209DF85B30B4F8520194F8311103EB2C
:103F400002231FFA83FB9DF856209DF8573003EBA0
:103F500002239BB25B029DF8582000939DF85930D4
:103F600003EB02239BB25B029DF8522006939DF85F
:103F7000533003EB02239DF850209BB2B0F57A7FBB
:103F800002934FEAE2020ED0257F0BFB00F04FF4C4
:103F90007A7300F5FA7090FBF3F0236A002D40F07D
:103FA00094801FFA80FB002900F099804FEA8B1360
:103FB000DBB209930023ADF84630D3B2049303F08B
:103FC0000F0301934FEA9B0B019A4FF2A103D340D9
:103FD00003F001030B9394F828300393002B00F0B7
:103FE000AC81257F236A25B1029A03FB02F5803557
:103FF0002D0A94F8E020009BD4F8DC7008922B4442
:1040000011464FF47A78384608FB03FA0A93FFF713
:10401000D9FAD4F8E43094F8E810079381461846AA
:10402000FFF7D0FA089A0A9B0AF5004A082A4FEAD5
:104030001A4603F180020CBF02210321C04B002E5F
:1040400063D1C4F840311F4612AA00212046FFF771
:10405000C7FE129BB6B2002B00F06D81BB422CBF95
:1040600000270127002840F0108294F82A90B9F127
:10407000000F00F0718113AA02212046FFF7B0FE65
:1040800088B90122FF212046FFF7C3FD58B90DF181
:104090004602B6212046FFF767FD20B90246FF2100
:1040A0002046FFF7B6FDBDF846506B02139DC4F8DD
:1040B00048311DB1AB4294BF00250125002800F016
:1040C0004C814FF00008C24665E1029D9BB26B43F4
:1040D000009D1B129D420CD1A1B948F6E02BD2B233
:1040E0000023049202F00F02ADF8463001920993CA
:1040F0006AE7009D80B26843EB1AB0FBF3F31FFA46
:1041000083FB50E742F2B82B50E781444FEAC929BC
:1041100001FB09F140F277604FEA122E01F5FA71C6
:10412000B1FBF8F1414301F5FA710F93B1FBF8F3DC
:10413000089303FB0EFE069BDFF818920E9108FB16
:1041400003F000EA09000EF1800EB0FBF6F67D48A0
:104150000D925FEA1E2E08BF4FF0010E864228BF67
:1041600006464FF4167000FB06F30C2000FB0EF021
:104170000A9306F04DFE460008FB05F0B0F5481F17
:104180000AEA090A28BF4FF44810AAEB400000F5DC
:10419000FA700AF5FA7AB0FBF8F0BAFBF8F8000208
:1041A000B0FBF8F868480A9B4FEA0828C8F5803841
:1041B00041F25C2500FB0BF0B0FBF5F000FB08F0D2
:1041C00000F50040000C00F5803040084043800BB3
:1041D0004FF4487808FB00F808F5004803F500455F
:1041E0004FEA184808FB08F82D0C05FB058006F07F
:1041F0000FFE079B00041F444FF0640E3230B0FBEB
:10420000FEF040F6B53EB0FBF6F641F288304FF4D2
:104210007A790EFB060607F5FA7742F210704FF432
:10422000FA6EB6FBF0F6B7FBFEFEB6F5704F0EF574
:10423000C81EB7FBF9F7BEFBF7F028BF4FF4704676
:1042400006F0E6FD000200F5FA70B0FBF9F040431D
:1042500006FB060006F0DCFD0F9B0E9909FB00F73C
:104260009F4228BF1F46B4F85401D4F85831C4F80F
:10427000407103FB00F909F18009009B4FEA1929FD
:1042800009FB00F9002B54D00D9A304B03EA82232E
:10429000009A03EB5203B3FBF2F303EB43035B43DC
:1042A00003F500431B0C06200335B5FBF0F5C5EB09
:1042B000C505B5F5803F37BF0A9A254A0332B2FBE0
:1042C000F0F23FBFC2EBC20202F50042120C5243B1
:1042D0004FF4FA6509F12000B1FBF5F1884442443E
:1042E0000899B2FBF1F280099203FE217F32B2FB02
:1042F000F1F203FB02F806F08BFD4FF47A7A08F531
:10430000FA78B8FBFAF84FEA081808F5FA78064682
:10431000B8FBFAFABAF1000F04D0B8FBF5F5A944DE
:10432000B9FBFAFA504606F073FD864228BF0646EE
:104330008AE6009BB7E71F4694E6039F95E600BF19
:10434000AE878F02666666009A9906000000FCFF41
:104350000000F0FF0000FFFF4D4694F82B80B8F1FD
:10436000000F74D0029B002B6CD0009B4FEA032AF5
:10437000029BBAFBF3FA17AA03212046FFF730FD90
:10438000179B002B61D0534594BF4FF0000A4FF0AC
:10439000010A00285CD00026B646039B002B00F0E3
:1043A000838007F00107019A94F8293084F82E7071
:1043B000042A7BD0B3FA83F35B09B9F1000F08BF7D
:1043C0000125B8F1000F08BF4FF0010A05F0010503
:1043D0000AF0010A84F8305084F82F3084F831A0B4
:1043E00004F150050FCD17AF0FC795E80700002364
:1043F00087E807001893009B1A93069B1B93BDF850
:104400000830ADF870309DF82430ADF866608DF856
:1044100074E0ADF864B08DF873300DF15C0EBEE859
:104420000F0004F150060FC697E8070085E8070063
:104430002046FFF748FC054600283CD028461FB020
:10444000BDE8F08FDDF808A095E79A46A1E7C246DF
:104450000B9B03BB019B013B022B1FD9019B062B2E
:1044600053D0092B51D0049B03F00D03082B18D017
:10447000012D16D0019B042B60D0BAF1010F50D052
:10448000012F51D0BA463D4685E74FF00008C1469E
:10449000C24645467FE74FF0FF0E7EE74FF0050E20
:1044A0007BE74FF0030E78E701277CE7012384E7E1
:1044B0006FF01305C2E70122FF212046FFF7A9FB99
:1044C00005460028BAD10C9AB6212046FFF74CFBCE
:1044D00005460028B2D10246FF212046FFF799FB8E
:1044E00005460028AAD1059A01212046FFF791FB35
:1044F00005460028A2D19DF8143084F830319DE79C
:10450000474508BF6FF0060598E74FF0040E039B80
:10451000002B7FF446AF012294F8293084F82E2036
:1045200048E74FF0020EF2E75546BE46EFE701239B
:1045300084F82E30039D4FF0020E3EE7039B002BC4
:10454000F5D04FF0020E2CE708B506220B4690F886
:104550005C01B02105F017FB00280CBF6FF01300C1
:10456000002008BD13B502AA00230C4602F8013D45
:104570000121FFF70FFB78B99DF80730C3F3001254
:104580002270C3F3C002A270C3F380026270C3F34F
:104590008012DB09E270237102B010BD2DE9F047F3
:1045A00086B0037C0B700C4603AAF8210546FFF782
:1045B000DBFA064628BB04AA04212846FFF7C2FA04
:1045C0000646F0B9BDF80C201AB1049BB3FBF2F318
:1045D000A360A368AB610023237304AA20212846AB
:1045E000FFF7C2FA064660B9BDF810306BB92A6A07
:1045F00022612B7704AA28212846FFF7B5FA064640
:1046000040B1304606B0BDE8F087DB0023612B6285
:104610000123EEE7BDF81030C3F30B03B3F5006FD1
:104620004FF0FA0226BFA3F5805313FB02F3534366
:10463000636104F1240805F1280A04F11809002730
:104640004246B9B22846FFF7CBFB06460028D8D130
:1046500001371AF8013B09F8013B062F08F104085D
:10466000EED104AA01212846FFF794FA0646002855
:10467000C7D19DF8103085F830311B064ABF0123A1
:1046800084F83C0084F83C3094F83C3085F84C3099
:104690004FF4FA6302930023039340F636336360CA
:1046A00004A92846FFF75EFF06460028A9D19DF819
:1046B00010302BB99DF8113013B99DF81230CBB1E1
:1046C00002AA0221284606F0DEFA00283ED19DF813
:1046D00010302BB1029B03F24E22636813446360D7
:1046E0009DF81230DBB1029B03F2B222636803EB48
:1046F000420363609DF813305BB103AA032128468F
:1047000006F0C1FA039B03F52572636813446360E6
:10471000E0B99DF8143063B963686B6171E79DF887
:104720001130002BE6D0029B03F525726368134419
:10473000DFE701AA0421284606F0A5FA019B03F24F
:1047400026226368134463600028E5D0064658E7D4
:1047500038B504460D4601F07F0204308A21FFF788
:1047600058FA84F8605138BD044A536823B192F96D
:104770000020824200D11847704700BFA0100020DF
:10478000034B1B68DA79511CD9711344187A7047AE
:10479000BC13002010B5FFF7F3FF84B2FFF7F0FF62
:1047A00004EB002080B210BD064B10B50146044654
:1047B000986806F073FE044B1B689A7954409C710C
:1047C00010BD00BFA0100020BC13002010B504468F
:1047D000C0B2FFF7E9FF200ABDE81040E4E710B5DA
:1047E000044680B2FFF7F2FF200CBDE81040EDE771
:1047F0002DE9F34188469DF824E0184E11461A46EB
:104800009DF8203005460C240020042807460AD0D5
:10481000013004FB006C1CF90CCCAC45F5D104FB59
:104820000764208908B1002002E025B1012D11D0D4
:1048300002B0BDE8F0810A48CDF800E004F092FE35
:104840000028F5D00C2303FB07660571A6F8088045
:104850007060EDE7CDF800E00248EFE7580A00206D
:10486000003801400044004070B50E490E4A0B7BF1
:1048700012680025032B05DD05B10B73002070BD08
:104880002346F7E702EBC3065C1CB6883042E4B26D
:104890004FF00105F4D00C730820022110FB031027
:1048A000104470BDA0100020E4130020014B002232
:1048B0001A73D9E7A01000202DE9F0411D4D002406
:1048C0000A274FF47A7682781FFA82FEA4EB0E0351
:1048D0001BB2002B2ADDC2F16402D2B290F8038031
:1048E00003FB03FC08FB0CFCC8F164080EEB8E0E06
:1048F00012FB02F29CFBF2F24244534393FBF7F3A8
:1049000003EB4E031BB26B800A88B1F802E00A3455
:10491000AEEB020EA4B203FB0EF3782C93FBF6F37E
:10492000134425F8023FCED1BDE8F08108BF012233
:10493000D4E700BFAC10002030B50C4C002340F68B
:10494000C415072B10D003FB03F2A2F11901427822
:104950004A4302F6C41201785A434A4392FBF5F2E5
:1049600024F813200133ECE730BD00BFC61000204F
:104970000430104B10B533F910200C7840F6330397
:104980009A42A8BF1A46B2F5617F4FF0190340F270
:104990008330B8BF4FF4617213FB0404944207DA0A
:1049A000497813FB01009042B4BF0020012010BDE4
:1049B000002010BDF40F0020034B002283F83420A8
:1049C0009A639A871A647047A010002070B408B9DF
:1049D00070BCF1E70E4A00230C25114605FB03F4D9
:1049E000A65C864209D10B4B186C50B12244557815
:1049F0004278954205DB70BC70470133102BEDD136
:104A0000F9E70022214419649A879A63F3E700BF0B
:104A1000D81A0108A010002040000C4A142870B4D5
:104A2000A8BF1420002302F14401022614255E547D
:104A30000233CC18984204F8015CF8DC1344FF22DE
:104A400083F844200F2070BCC0E700BFA0100020F6
:104A500010B50A490A480A68846800BF0B689A4280
:104A6000F9D1084BD96D4FF47A7000FB01F31B1B91
:104A7000B3FBF1F300FB023010BD00BFE81D0020C6
:104A800010E000E0A010002038B50446FFF7E0FF7A
:104A90000546FFF7DDFF401BA042FAD338BD10B535
:104AA000044604B910BD4FF47A70FFF7EDFF013CE6
:104AB000F7E72DE987482D4C06460B27013FFCD030
:104AC0004FF01E0B05254FF0020806F0400906F0D6
:104AD000200A00E00025B9F1000F04D0A38A9BB2A0
:104AE00083F48043A382BAF1000F04D0A38A9BB25F
:104AF00083F40043A38216F002021FBFA38A9BB275
:104B000083F40053A38258460192FFF7C8FF019A2D
:104B1000B9F1000F04D0A38A9BB283F48043A3822F
:104B2000BAF1000F04D0A38A9BB283F40043A3829E
:104B300022B1A38A9BB283F40053A3825846FFF7A5
:104B4000AEFF7DB1013DC6D14FF4FA70FFF7A7FF6C
:104B50004FF0960BB8F1000FBCD14FF47A70FFF70D
:104B60009EFFABE708F1FF38F4E700BF00080048FC
:104B7000024A136801331360704700BFE81D00202C
:104B80000920F1E52820EFE506EE901AB8EEE66A76
:104B9000DFED106A104B9FED117AB3F8603026EE0E
:104BA000266AF7EE005AC5EE866A07EE903AF8EEEE
:104BB000677A67EE877A90ED007A76EEA76A30EE34
:104BC000470A87EEA66AA6EE007AB0EE470A80EDA5
:104BD000007A7047DB0FC940A0100020BD37863532
:104BE0002DE9F74F244D254E254F002495F862807E
:104BF000E0B240450ADA56F820302BB10B2803DC2E
:104C0000DB6837F8101098470134EFE71D4B1B683D
:104C10005B032DD50025194FDFF86CB029464FF006
:104C2000500A4FF028092A46EEB2B04520DD57F869
:104C300026305C688C4214D02046019204F040FC7F
:104C4000EFF312838AF31288616A09FB00B0013125
:104C50004162616941F001016161DBB283F3118856
:104C6000019A57F826301B6801351A602146DBE7A8
:104C700003B0BDE8F08F00BFA01000201416002084
:104C80001E0A0020F00F0020F81D00202DE9F04F33
:104C9000F34BF44CD3F80090D4F868A0F24DDFF851
:104CA0000884F24FF24E2DED0A8BD14583B0B0EE61
:104CB00040BADFEDF08ADFEDF09A9FEDF09A9FEDBC
:104CC000F0AA00F01083EF4BC4F868901A780193B3
:104CD000DFF8D8B3002A4ED1BBF90230D5ED085A1F
:104CE000D5ED060A07EE903ABBF9043000EE103A13
:104CF000B8EEC07AF8EEE77A95ED070ABBF9003016
:104D000065EE876AB7EE006AE7EE806A20EE470A32
:104D1000A0EEE06AA7EEA50A60EEE60A06EE903A7B
:104D2000F8EEE66AB1EE400AE6EE260A0BF01AF952
:104D3000DFEDD57AB4EEE70AF1EE10FAB0EE401AE4
:104D400000F1AD82DFEDD17AB4EE670AF1EE10FA30
:104D5000C8BFB0EE671ACE4AD2ED010A92ED000A42
:104D600002F01EFF019BC8ED008A0122C8ED018AF6
:104D7000C8ED028A1A70BBF90030D5ED01AAD5ED55
:104D8000006A07EE103ABBF9023008EE103AB8EEAE
:104D9000C88AB8EEC77ABBF9043068EE2AAA07EED3
:104DA000903AE7EE26AAF8EEE77AD5ED026AE7EE4A
:104DB000A6AAD5ED046AC4ED1BAA28EE268AD5ED75
:104DC000036AA7EE268A95ED057AA7EE878A28EE74
:104DD00008CA84ED1C8AB0EE4C0AAAEEAA0A0BF0AF
:104DE0003FF9CAEE80BAB0EE4C0AABEEAB0A0BF05C
:104DF00037F9DFEDA87AB0EEEB7AB4EE677AF1EE30
:104E000010FA09DCC8EE00AAB0EEEA7AB4EE677ACE
:104E1000F1EE10FA40F36482DFED96AA97ED010AF5
:104E200097ED007AD7ED027AD5ED08BA20EE000AA8
:104E3000A7EE070AA7EEA70A0BF012F9D5ED097A3B
:104E4000F4EEE97AF1EE10FAB4EEC90A48BFC5ED06
:104E5000099AF1EE10FAB0EE40CA00F12382DFEDBC
:104E6000947AB4EEE70AF1EE10FA00F31E82C0EE77
:104E7000097A6BEEAABA95ED098A94ED1E0A6BEEDB
:104E8000A77A20EE000A27EE888AD4ED1D7AA7EED5
:104E9000A70A0BF0E5F8F1EE007AB4EEE70AF1EEBE
:104EA00010FA9DBFF1EE027A77EEC07A9FED7A0A92
:104EB000DFED7A7A336898BF67EE807AD90768EEBB
:104EC000277A58BFB2EE007AC8ED027A58BF67EE73
:104ED000877AA9EB0A0358BFC8ED027A07EE903A29
:104EE0009FED6F7AF8EE677A67EE877AB0EE007A18
:104EF000F4EEC77AF1EE10FA05D5B4EECACAF1EEB7
:104F000010FA00F10582D4ED207AB4F88430F0EE86
:104F1000EAAA7AEEA7AA0133C4ED20AAA4F8843045
:104F2000B4F98630D5ED01BAD5ED006AD5ED04AA05
:104F30005B4207EE903AB4F988305B4208EE103AD3
:104F4000B8EEC88AB4F98A30B8EEE77A68EE2BBAC0
:104F50005B4207EE903AE6EE87BAF8EEE77AD5EDD7
:104F6000026A68EE2AAAE6EEA7BAD5ED036AC4ED96
:104F70001DBAE7EE26AAD5ED056AE7EEA6AAD5ED9D
:104F8000076AC4ED1EAA28EE268AD5ED066AA7EEAA
:104F9000268A95ED087AA7EE878AD4ED237A84EDE8
:104FA0001F8A3BEE27BADFED3F7A84ED23BA6AEE23
:104FB000A7AA6BEEA7BA6AEEAACA28EE278AB0EEB5
:104FC0006C0AABEEAB0AA8EE080A0BF049F88BEEC0
:104FD00080CAB0EE6C0AACEE0C0AA8EE080A0BF020
:104FE0003FF8CAEE80BA2BEEAB0AACEE0C0AA8EE84
:104FF000080A0BF035F888EE000AB0EE4C8AA0EEF5
:10500000288AB0EE6B7A90EE687AD5ED037AD5ED0A
:10501000006AD5ED04AA97ED010A68EE277A68EEDA
:10502000EBBAE7EE267AECEE28BAD5ED066AEBEE9F
:10503000A67A68EE2AAAC4ED247AB0EE67CAD5ED46
:10504000017AE7EE27AAD5ED077AEBEEA7AAD5ED10
:10505000057AC4ED25AA28EE278AD5ED027A29E043
:1050600060100020A010002014000020401000203C
:10507000CC17002000000000CDCC4C3DF3665F3F14
:10508000C2B8B23E7C1000209A9949C09A99494012
:105090004C100020FFFF7F7FCDCC4C3ECDCCCC3DD3
:1050A000BD378635000080393410002064100020A0
:1050B00058A00B41A7EE278A20EE000A97ED007A50
:1050C000D5ED087AA7EE070AABEEA78AD7ED027AEC
:1050D00084ED268AA7EEA70A0AF0C2FFD5ED0A7A68
:1050E000F4EEE97AF1EE10FAB4EEC90A48BFC5ED64
:1050F0000A9AF1EE10FA00F1DB805FED137AB4EE5C
:10510000E70AF1EE10FA00F3D68080EE097A864BBA
:1051100095ED0A6A2CEE077AB4EEC90A67EE066AC4
:10512000F1EE10FAC3ED006A00F1C880DFED7F7A7E
:10513000B4EEE70AF1EE10FA00F3C38080EE097ACC
:105140002AEE877AB4EEC90A27EE067AF1EE10FA53
:1051500083ED017A00F1B880DFED747AB4EEE70AEE
:10516000F1EE10FA00F3B380C0EE097A3268D2078C
:1051700068EE277A67EE867AC3ED027A0DD4B2EE36
:10518000006A66EE866A27EE067A67EE867AC3EDD7
:10519000006A83ED017AC3ED027AB4EECA0AF1EE39
:1051A00010FA1FD59FED627AD4ED276A6CEE077A6C
:1051B0006AEE87AAEBEE276AD4ED287AC4ED276A57
:1051C000EBEE2A7A28EE078AC4ED287AD4ED297A04
:1051D000EBEE087AC4ED297AD4ED2A7A37EE8BBA51
:1051E00084ED2ABAD4ED2A7AB1EE047AF4EEC77AC5
:1051F000F1EE10FA4CDB94ED197A94ED276A67EE24
:10520000877AB1EE677AB4EEC76AF1EE10FA61D42C
:10521000F4EE467AF1EE10FA48BFB0EE676AD4EDCC
:10522000286AB4EEE67AF1EE10FA56DCF4EE667A0D
:10523000F1EE10FA48BFF0EE676AD4ED295AB4EEE9
:10524000E57AF1EE10FA08DCF4EEE57AF1EE10FA08
:1052500054BFB0EE657AB0EE677A364BC4ED278A5C
:10526000D3ED007AC4ED288A37EE866AD3ED017A51
:1052700083ED006A77EEA66AD3ED027AC3ED016A88
:1052800037EE877AC4ED298A83ED027AC4ED2A8A43
:10529000C4ED238A03B0BDEC0A8BBDE8F08FB0EEFD
:1052A000671A58E5F7EE007AE3E5F2EE047AE0E5F6
:1052B000B7EE007A2BE7B2EE047A28E7B7EE007A71
:1052C0003EE7B2EE047A3BE7F7EE007A4EE7F2EE05
:1052D000047A4BE7B0EE476AA1E7F0EE476AACE725
:1052E000DBEEA8AA9AE59FED147AD8ED007A67EE76
:1052F000877AC8ED007AD8ED017A67EE877AC8ED33
:10530000017AD8ED027A67EE877AC8ED027A07E66D
:105310009FED0A7A6BEE87BA94ED297AA7EEAB7A05
:1053200084ED297AEFE500BF2810002058A00B413A
:10533000728A0E3C1C100020EC51783F0AD7233CA7
:1053400010B52F4CD4ED013A94ED046A94ED003A77
:1053500094ED037A94ED024AD4ED056A63EE867A01
:10536000F6EE005AE3EE077A8AB02146B0EE635AB1
:10537000E4EE267A07A8F0EE444A67EEA57AF0EE4E
:10538000435AA6EE675AE6EEE74AA3EEE76AE4EE72
:10539000676AE7EE675ACDED066AA3EE677AF0EE2C
:1053A000667A66EE646A8DED047AE5EE276A67EE4A
:1053B000E57ACDED075AE4EE877A27EE457A8DED52
:1053C000085AA5EE867ACDED094A8DED056ACDED38
:1053D000016ACDED027A8DED037A02F087FB58B1B8
:1053E00004F10C0104A802F081FB28B104F11801BA
:1053F00001A802F07BFB08B9FEF7A2FA0AB010BDC3
:105400001400002003789942BABF024B33F8110010
:105410000020704760110020F0B5234D00210B469D
:105420002C4641F2210642182A44127E83EA0223C6
:105430000922013A07D013F4004F4FEA430318BF83
:1054400073409BB2F5E701311929ECD100F1190144
:1054500000F11A05214425440E7E297E01EB062128
:1054600089B299421FD194F8397001384FF4AF6670
:10547000D5B2BD4202F1010212DA00EB4201C9B21B
:1054800063180131214493F818E00B7E03EB0E23DF
:105490009BB273431B1303F5487324F81530E7E7F9
:1054A000012384F83A30F0BD6011002003788B426C
:1054B0000BD9074B1A78074B89000B44D86B02B104
:1054C000400800F5777080B270470020704700BF39
:1054D000E60F00206011002007299BBF034B03EB60
:1054E00081010020C86E80B2704700BF60110020AB
:1054F000034B03EB4101B1F88C00C008704700BFBB
:10550000601100200A4BDFED0B7A03EB810191ED76
:105510002B7AB8EE477AF6EE046AE7EE267A82B086
:10552000FCEEE77ACDED017ABDF8040002B07047D9
:105530006011002000005C44024B03EB4101B1F814
:10554000F400704760110020014B33F811007047E0
:10555000F8150020014B33F811007047F8150020B2
:105560000020704770B5304C0546FFF771FAD4F84B
:105570001831C4F81801C31AB3F5FA5F82BF0023CB
:1055800084F81C3184F81D3194F81C3123B9A12D05
:1055900004BF012284F81D2194F81D212AB1E218CC
:1055A000EDB20133157684F81C3194F81C5194F84F
:1055B0001E31AB420AD194F81F31052B07D0062BC0
:1055C00008D0002384F81D3184F81C3170BD002000
:1055D000FFF722FF637E1E2BF3D100200246013D20
:1055E000C3B2AB4218DA234409211B7EDBB2013976
:1055F00011F0FF010DD082EA0306F60745BF83F0E4
:105600001803C3F347035B0843F08003C2F3470268
:10561000EDE701301A46E3E725442B7E9A42D0D1CC
:105620000320FFF7F9FECCE76011002010B5044617
:10563000FFF70EFA0E4BD3F82021C3F82001821A8F
:1056400041F288318A4284BF002283F8242193F8F2
:1056500024210F2A03EB0201E4B214BF013201221C
:1056600081F8254114BF83F8242183F8352110BD2A
:105670006011002010B50446FFF7EAF90E4BD3F88D
:105680003821C3F83801821A41F288318A4284BF36
:10569000002283F83C2193F83C21142A03EB0201F9
:1056A00014BF0132012281F83D4114BF83F83C212F
:1056B00083F8522110BD00BF6011002010B50446D0
:1056C000FFF7C6F9254BD3F85421C3F85401821AC9
:1056D000B2F57A6F84BF002283F8582193F85821DD
:1056E0004AB9A82C38D183F85921A3F85A2199181E
:1056F00081F85D4106E0022A02D183F85C41F6E7B9
:10570000242AF4D993F85C1101320231D2B2490053
:105710008A4283F8582116DAB3F85A01E4B280EAD3
:105720000420082241F2210110F4004F02F1FF325F
:105730004FEA400018BF484012F0FF0280B2F3D198
:10574000A3F85A0110BD01318A4201BF002283F83B
:105750005821012283F8592110BD00BF601100209B
:1057600010B50446FFF774F90F4BD3F8842140F6C7
:10577000AC51821A8A42C4BF002283F8882193F870
:105780008821991881F889411AB90F2C0BD1C3F8D7
:1057900084010132D2B2192A83F888210CBF012278
:1057A000002283F8A22110BD601100200A4BD3F81B
:1057B000A421117840F257134B435843537800F516
:1057C0004730C3EB033300F2CE30B0FBF3F09378F5
:1057D000B0FBF3F080B27047601100202DE9F04774
:1057E000774C94F8A93104EB43032DED048BB3F807
:1057F000B881B4F9CA310A2B1CBF002384F8C83120
:1058000094F8C8311FFA88F8A4F8C081002B61D140
:105810006C4BC4F8CC31C4F8D4314FF07E53C4F88B
:10582000D831694BC4F8DC31684BC4F8E03140F240
:10583000DC53674DC4F81C32DFED668A664AC4F853
:10584000D0211023A4F81A321823A4F8183205F135
:10585000140605F10C07B0EE689AB6EE008AD5ED95
:10586000037A67EEA87AA946F5EEC07AF1EE10FA4F
:105870004CBF77EEC87A77EE887A043517EE900A37
:1058800006F044FED9ED007A67EE897AC6E9080190
:10589000F5EEC07AF1EE10FA4CBF77EEC87A77EEEB
:1058A000887A17EE900A06F031FEAF42E6E902016F
:1058B000D5D10A23A4F8CA31A8F2DC531B04C4F8DA
:1058C0003832C4F84432C4F83C32C4F848320123B8
:1058D00084F8C831414BD4F81CA2B4F91A525A6A60
:1058E000D4F83872D4F84462D4F848C2C4F8486294
:1058F000A8EB0A0000FA05F1186AC4F838124FEA5A
:10590000E1794A4300FB0922A0FB010111445A6CD2
:10591000D3F84080D4F83CE2C4F83C724FEAE67910
:10592000724308FB0922A8FB06899144DA6A9E6A41
:10593000C4F840E2B0EB080061EB09017A434FEA9A
:10594000E77906FB0922A6FB07671744DA6CC4F85F
:105950004CC23618986C4FEAEC790CFB02F24F41BE
:1059600000FB0922A0FB0C01301A1144764667EBBC
:105970000101F7171E6B5B6BB4F918220EFB03F3E2
:1059800006FB0733A6FB0E671F448019794106F01A
:1059900045F96A1E01239340C4F84402C01841EB44
:1059A000E3712A4606F03AF910EB0A0080B2FFF7DD
:1059B000FDFEBDEC048BA4F85002BDE8F08700BFEB
:1059C0006011002056157D396350FABF0CE0743F1A
:1059D0002C1300200000804B5615FD3928130020A1
:1059E000104B1B6803EB4002117E29B102290DD038
:1059F0000D4B33F810007047022805D90328F7D162
:105A00000A4A1268D2040AD5D8897047507E00EB42
:105A1000800000EB800000F2EE2080B270474FF46F
:105A2000966070470C1D0020F40F0020F00F00203E
:105A300008B5FFF70DF8074B022283F85822C3F888
:105A40005402054B1A68054B9A60012283F8212005
:105A500008BD00BF60110020E81D0020481D002087
:105A600008B5FEF7F5FF084B022283F8582200F52F
:105A7000B710064A00F55870C3F85402936803F251
:105A8000DC53936008BD00BF60110020481D00205A
:105A90002DE9F043CB4C2DED048BD4F85C2292F829
:105AA00049304E2B8BB0264600F0B08200F2818048
:105AB000372B00F0058350D8292B00F0958220D891
:105AC000252B00F07B82272B00F08082232B5BD1DB
:105AD000FEF756FE1328054610D8BB4E3468FEF775
:105AE0004FFEBA4900230C2707FB031292F808E087
:105AF000864500F0278301331C2BF5D1FDF702FF0B
:105B0000CFE0332B00F0A982352B00F08D812D2BB7
